{
  "contractName": "ReadingList",
  "abi": [
    {
      "constant": true,
      "inputs": [
        {
          "name": "",
          "type": "uint256"
        }
      ],
      "name": "slots",
      "outputs": [
        {
          "name": "id",
          "type": "uint256"
        },
        {
          "name": "linkId",
          "type": "uint256"
        }
      ],
      "payable": false,
      "stateMutability": "view",
      "type": "function",
      "signature": "0x387dd9e9"
    },
    {
      "constant": true,
      "inputs": [],
      "name": "linksCount",
      "outputs": [
        {
          "name": "",
          "type": "uint256"
        }
      ],
      "payable": false,
      "stateMutability": "view",
      "type": "function",
      "signature": "0x3d04f325"
    },
    {
      "constant": true,
      "inputs": [],
      "name": "slotsCount",
      "outputs": [
        {
          "name": "",
          "type": "uint256"
        }
      ],
      "payable": false,
      "stateMutability": "view",
      "type": "function",
      "signature": "0x81083bd4"
    },
    {
      "constant": true,
      "inputs": [
        {
          "name": "",
          "type": "uint256"
        }
      ],
      "name": "links",
      "outputs": [
        {
          "name": "id",
          "type": "uint256"
        },
        {
          "name": "url",
          "type": "string"
        },
        {
          "name": "upVotes",
          "type": "uint256"
        }
      ],
      "payable": false,
      "stateMutability": "view",
      "type": "function",
      "signature": "0x881d8a40"
    },
    {
      "inputs": [],
      "payable": false,
      "stateMutability": "nonpayable",
      "type": "constructor",
      "signature": "constructor"
    },
    {
      "anonymous": false,
      "inputs": [
        {
          "indexed": true,
          "name": "from",
          "type": "address"
        },
        {
          "indexed": false,
          "name": "url",
          "type": "string"
        },
        {
          "indexed": false,
          "name": "slot",
          "type": "uint256"
        }
      ],
      "name": "LinkAdded",
      "type": "event",
      "signature": "0x7e8f4a1fc46d0404d31de7159fa3f435cca7365dd49fad5f618cf1fb7cf7f61e"
    },
    {
      "constant": false,
      "inputs": [
        {
          "name": "_url",
          "type": "string"
        },
        {
          "name": "_slot",
          "type": "uint256"
        }
      ],
      "name": "addLink",
      "outputs": [],
      "payable": false,
      "stateMutability": "nonpayable",
      "type": "function",
      "signature": "0x655b9c61"
    }
  ],
  "bytecode": "0x608060405234801561001057600080fd5b50610028610125640100000000026401000000009004565b61003f610125640100000000026401000000009004565b610056610125640100000000026401000000009004565b61006d610125640100000000026401000000009004565b610084610125640100000000026401000000009004565b610120608060405190810160405280604a81526020017f68747470733a2f2f65616e642e636f2f7768792d7468652d323173742d63656e81526020017f747572792d6e656564732d612d6e65772d6b696e642d6f662d6d696e642d643381526020017f3731643130623230323400000000000000000000000000000000000000000000815250600161017d640100000000026401000000009004565b610394565b6003600081548092919060010191905055506040805190810160405280600354815260200160008152506001600060035481526020019081526020016000206000820151816000015560208201518160010155905050565b60008111801561018f57506003548111155b151561019a57600080fd5b6002600081548092919060010191905055506060604051908101604052806002548152602001838152602001600081525060008060025481526020019081526020016000206000820151816000015560208201518160010190805190602001906102059291906102ef565b506040820151816002015590505060025460016000838152602001908152602001600020600101819055503373ffffffffffffffffffffffffffffffffffffffff167f7e8f4a1fc46d0404d31de7159fa3f435cca7365dd49fad5f618cf1fb7cf7f61e83836040518080602001838152602001828103825284818151815260200191508051906020019080838360005b838110156102b0578082015181840152602081019050610295565b50505050905090810190601f1680156102dd5780820380516001836020036101000a031916815260200191505b50935050505060405180910390a25050565b828054600181600116156101000203166002900490600052602060002090601f016020900481019282601f1061033057805160ff191683800117855561035e565b8280016001018555821561035e579182015b8281111561035d578251825591602001919060010190610342565b5b50905061036b919061036f565b5090565b61039191905b8082111561038d576000816000905550600101610375565b5090565b90565b6105e7806103a36000396000f3fe60806040526004361061006d576000357c0100000000000000000000000000000000000000000000000000000000900463ffffffff168063387dd9e9146100725780633d04f325146100c8578063655b9c61146100f357806381083bd4146101c5578063881d8a40146101f0575b600080fd5b34801561007e57600080fd5b506100ab6004803603602081101561009557600080fd5b81019080803590602001909291905050506102b2565b604051808381526020018281526020019250505060405180910390f35b3480156100d457600080fd5b506100dd6102d6565b6040518082815260200191505060405180910390f35b3480156100ff57600080fd5b506101c36004803603604081101561011657600080fd5b810190808035906020019064010000000081111561013357600080fd5b82018360208201111561014557600080fd5b8035906020019184600183028401116401000000008311171561016757600080fd5b91908080601f016020809104026020016040519081016040528093929190818152602001838380828437600081840152601f19601f820116905080830192505050505050509192919290803590602001909291905050506102dc565b005b3480156101d157600080fd5b506101da61044e565b6040518082815260200191505060405180910390f35b3480156101fc57600080fd5b506102296004803603602081101561021357600080fd5b8101908080359060200190929190505050610454565b6040518084815260200180602001838152602001828103825284818151815260200191508051906020019080838360005b8381101561027557808201518184015260208101905061025a565b50505050905090810190601f1680156102a25780820380516001836020036101000a031916815260200191505b5094505050505060405180910390f35b60016020528060005260406000206000915090508060000154908060010154905082565b60025481565b6000811180156102ee57506003548111155b15156102f957600080fd5b600260008154809291906001019190505550606060405190810160405280600254815260200183815260200160008152506000806002548152602001908152602001600020600082015181600001556020820151816001019080519060200190610364929190610516565b506040820151816002015590505060025460016000838152602001908152602001600020600101819055503373ffffffffffffffffffffffffffffffffffffffff167f7e8f4a1fc46d0404d31de7159fa3f435cca7365dd49fad5f618cf1fb7cf7f61e83836040518080602001838152602001828103825284818151815260200191508051906020019080838360005b8381101561040f5780820151818401526020810190506103f4565b50505050905090810190601f16801561043c5780820380516001836020036101000a031916815260200191505b50935050505060405180910390a25050565b60035481565b6000602052806000526040600020600091509050806000015490806001018054600181600116156101000203166002900480601f0160208091040260200160405190810160405280929190818152602001828054600181600116156101000203166002900480156105065780601f106104db57610100808354040283529160200191610506565b820191906000526020600020905b8154815290600101906020018083116104e957829003601f168201915b5050505050908060020154905083565b828054600181600116156101000203166002900490600052602060002090601f016020900481019282601f1061055757805160ff1916838001178555610585565b82800160010185558215610585579182015b82811115610584578251825591602001919060010190610569565b5b5090506105929190610596565b5090565b6105b891905b808211156105b457600081600090555060010161059c565b5090565b9056fea165627a7a723058202c63a92e9bee378a8b539bbec72b6bdf4acd8a86324ebfd4364d9acb495c1f880029",
  "source": "pragma solidity ^0.5.0;\n\ncontract ReadingList {\n\n\n    struct Link {\n        uint id;\n        string url;\n        // dateIn\n        // dateOut\n        uint upVotes;\n    }\n\n    struct Slot {\n        uint id;\n        uint linkId;\n    }\n\n    // store item in slot\n\n    // read item from slot\n    mapping(uint => Link) public links;\n    mapping(uint => Slot) public slots;\n\n    uint public linksCount;\n\n    uint public slotsCount;\n\n    event LinkAdded(\n        address indexed from,\n        string url,\n        uint slot\n    );\n\n    constructor() public {\n        addSlot();\n        addSlot();\n        addSlot();\n        addSlot();\n        addSlot();\n\n        addLink('https://eand.co/why-the-21st-century-needs-a-new-kind-of-mind-d371d10b2024', 1);\n\n    }\n\n    function addLink (string memory _url, uint _slot) public {\n\n        // msg.sender\n\n        require(_slot > 0 && _slot <= slotsCount);\n\n        linksCount ++;\n        links[linksCount] = Link(linksCount, _url, 0);\n        slots[_slot].linkId = linksCount;\n\n        emit LinkAdded(msg.sender, _url, _slot);\n    }\n    function addSlot () private {\n        slotsCount ++;\n        slots[slotsCount] = Slot(slotsCount,0);\n    }\n}",
  "sourcePath": "/Users/joeramulders/Documents/solidity/reading-list/contracts/ReadingList.sol",
  "compiler": {
    "name": "solc",
    "version": "0.5.0+commit.1d4f565a.Emscripten.clang"
  },
  "schemaVersion": "3.0.0",
  "updatedAt": "2019-01-03T11:22:00.662Z",
  "devdoc": {
    "methods": {}
  },
  "userdoc": {
    "methods": {}
  }
}