{
  "contractName": "ReadingList",
  "abi": [
    {
      "constant": true,
      "inputs": [
        {
          "name": "",
          "type": "uint256"
        }
      ],
      "name": "slots",
      "outputs": [
        {
          "name": "id",
          "type": "uint256"
        },
        {
          "name": "linkId",
          "type": "string"
        }
      ],
      "payable": false,
      "stateMutability": "view",
      "type": "function"
    },
    {
      "constant": true,
      "inputs": [],
      "name": "slotsCount",
      "outputs": [
        {
          "name": "",
          "type": "uint256"
        }
      ],
      "payable": false,
      "stateMutability": "view",
      "type": "function"
    },
    {
      "inputs": [],
      "payable": false,
      "stateMutability": "nonpayable",
      "type": "constructor"
    },
    {
      "anonymous": false,
      "inputs": [
        {
          "indexed": false,
          "name": "owner",
          "type": "address"
        }
      ],
      "name": "LinkAdded",
      "type": "event"
    },
    {
      "constant": false,
      "inputs": [
        {
          "name": "_linkId",
          "type": "string"
        },
        {
          "name": "_slot",
          "type": "uint256"
        }
      ],
      "name": "addLink",
      "outputs": [],
      "payable": true,
      "stateMutability": "payable",
      "type": "function"
    }
  ],
  "bytecode": "0x608060405234801561001057600080fd5b50610028610089640100000000026401000000009004565b61003f610089640100000000026401000000009004565b610056610089640100000000026401000000009004565b61006d610089640100000000026401000000009004565b610084610089640100000000026401000000009004565b6101cc565b600160008154809291906001019190505550604080519081016040528060015481526020016040805190810160405280600181526020017f30000000000000000000000000000000000000000000000000000000000000008152508152506000806001548152602001908152602001600020600082015181600001556020820151816001019080519060200190610121929190610127565b50905050565b828054600181600116156101000203166002900490600052602060002090601f016020900481019282601f1061016857805160ff1916838001178555610196565b82800160010185558215610196579182015b8281111561019557825182559160200191906001019061017a565b5b5090506101a391906101a7565b5090565b6101c991905b808211156101c55760008160009055506001016101ad565b5090565b90565b610448806101db6000396000f3fe608060405260043610610057576000357c0100000000000000000000000000000000000000000000000000000000900463ffffffff168063387dd9e91461005c578063655b9c611461011757806381083bd4146101dc575b600080fd5b34801561006857600080fd5b506100956004803603602081101561007f57600080fd5b8101908080359060200190929190505050610207565b6040518083815260200180602001828103825283818151815260200191508051906020019080838360005b838110156100db5780820151818401526020810190506100c0565b50505050905090810190601f1680156101085780820380516001836020036101000a031916815260200191505b50935050505060405180910390f35b6101da6004803603604081101561012d57600080fd5b810190808035906020019064010000000081111561014a57600080fd5b82018360208201111561015c57600080fd5b8035906020019184600183028401116401000000008311171561017e57600080fd5b91908080601f016020809104026020016040519081016040528093929190818152602001838380828437600081840152601f19601f820116905080830192505050505050509192919290803590602001909291905050506102c3565b005b3480156101e857600080fd5b506101f1610371565b6040518082815260200191505060405180910390f35b6000602052806000526040600020600091509050806000015490806001018054600181600116156101000203166002900480601f0160208091040260200160405190810160405280929190818152602001828054600181600116156101000203166002900480156102b95780601f1061028e576101008083540402835291602001916102b9565b820191906000526020600020905b81548152906001019060200180831161029c57829003601f168201915b5050505050905082565b6000811180156102d557506001548111155b15156102e057600080fd5b816000808381526020019081526020016000206001019080519060200190610309929190610377565b507f6870f20caedf8d33bf850316ace754c8ea222ca86a1a03c8bd7f9260c926f65533604051808273ffffffffffffffffffffffffffffffffffffffff1673ffffffffffffffffffffffffffffffffffffffff16815260200191505060405180910390a15050565b60015481565b828054600181600116156101000203166002900490600052602060002090601f016020900481019282601f106103b857805160ff19168380011785556103e6565b828001600101855582156103e6579182015b828111156103e55782518255916020019190600101906103ca565b5b5090506103f391906103f7565b5090565b61041991905b808211156104155760008160009055506001016103fd565b5090565b9056fea165627a7a72305820be63e72554cc8da9491487fada8eab7764c75e2dce8fb87d5ad2b16fb3c8faa50029",
  "source": "pragma solidity ^0.5.0;\n\ncontract ReadingList {\n\n    struct Slot {\n        uint id;\n        string linkId;\n    }\n\n    mapping(uint => Slot) public slots;\n    uint public slotsCount;\n\n    constructor() public {\n        addSlot();\n        addSlot();\n        addSlot();\n        addSlot();\n        addSlot();\n    }\n\n    event LinkAdded(address owner);\n\n    function addLink(\n        string memory _linkId,\n        uint _slot\n    )\n    public\n    payable\n    {\n        require(_slot > 0 && _slot <= slotsCount);\n        slots[_slot].linkId = _linkId;\n        emit LinkAdded(msg.sender);\n\n    }\n\n    function addSlot() private {\n        slotsCount ++;\n        slots[slotsCount] = Slot(slotsCount,'0');\n    }\n\n\n}",
  "sourcePath": "/Users/joeramulders/Documents/solidity/reading-list/contracts/ReadingList.sol",
  "compiler": {
    "name": "solc",
    "version": "0.5.0+commit.1d4f565a.Emscripten.clang"
  },
  "schemaVersion": "3.0.0",
  "updatedAt": "2019-01-05T22:27:34.994Z",
  "devdoc": {
    "methods": {}
  },
  "userdoc": {
    "methods": {}
  }
}